{
  "_format": "hh-sol-artifact-1",
  "contractName": "ResourcePortal",
  "sourceName": "contracts/ResourcePortal.sol",
  "abi": [
    {
      "inputs": [],
      "stateMutability": "payable",
      "type": "constructor"
    },
    {
      "anonymous": false,
      "inputs": [
        {
          "indexed": true,
          "internalType": "address",
          "name": "from",
          "type": "address"
        },
        {
          "indexed": false,
          "internalType": "uint256",
          "name": "timestamp",
          "type": "uint256"
        },
        {
          "indexed": false,
          "internalType": "string",
          "name": "message",
          "type": "string"
        }
      ],
      "name": "NewResource",
      "type": "event"
    },
    {
      "inputs": [],
      "name": "getAllResources",
      "outputs": [
        {
          "components": [
            {
              "internalType": "address",
              "name": "sender",
              "type": "address"
            },
            {
              "internalType": "string",
              "name": "message",
              "type": "string"
            },
            {
              "internalType": "uint256",
              "name": "timestamp",
              "type": "uint256"
            }
          ],
          "internalType": "struct ResourcePortal.Resource[]",
          "name": "",
          "type": "tuple[]"
        }
      ],
      "stateMutability": "view",
      "type": "function"
    },
    {
      "inputs": [],
      "name": "getTotalResources",
      "outputs": [
        {
          "internalType": "uint256",
          "name": "",
          "type": "uint256"
        }
      ],
      "stateMutability": "view",
      "type": "function"
    },
    {
      "inputs": [
        {
          "internalType": "address",
          "name": "",
          "type": "address"
        }
      ],
      "name": "lastResourceShared",
      "outputs": [
        {
          "internalType": "uint256",
          "name": "",
          "type": "uint256"
        }
      ],
      "stateMutability": "view",
      "type": "function"
    },
    {
      "inputs": [
        {
          "internalType": "string",
          "name": "_message",
          "type": "string"
        }
      ],
      "name": "resource",
      "outputs": [],
      "stateMutability": "nonpayable",
      "type": "function"
    }
  ],
  "bytecode": "0x60806040526200004f6040518060400160405280601681526020017f4920616d206120626164617373207765623320646576000000000000000000008152506200007760201b620006441760201c565b606444426200005f9190620001c4565b6200006b919062000261565b60018190555062000308565b62000117816040516024016200008e919062000184565b6040516020818303038152906040527f41304fac000000000000000000000000000000000000000000000000000000007bffffffffffffffffffffffffffffffffffffffffffffffffffffffff19166020820180517bffffffffffffffffffffffffffffffffffffffffffffffffffffffff83818316178352505050506200011a60201b60201c565b50565b60008151905060006a636f6e736f6c652e6c6f679050602083016000808483855afa5050505050565b60006200015082620001a8565b6200015c8185620001b3565b93506200016e8185602086016200022b565b6200017981620002f7565b840191505092915050565b60006020820190508181036000830152620001a0818462000143565b905092915050565b600081519050919050565b600082825260208201905092915050565b6000620001d18262000221565b9150620001de8362000221565b9250827fffffffffffffffffffffffffffffffffffffffffffffffffffffffffffffffff0382111562000216576200021562000299565b5b828201905092915050565b6000819050919050565b60005b838110156200024b5780820151818401526020810190506200022e565b838111156200025b576000848401525b50505050565b60006200026e8262000221565b91506200027b8362000221565b9250826200028e576200028d620002c8565b5b828206905092915050565b7f4e487b7100000000000000000000000000000000000000000000000000000000600052601160045260246000fd5b7f4e487b7100000000000000000000000000000000000000000000000000000000600052601260045260246000fd5b6000601f19601f8301169050919050565b6110c080620003186000396000f3fe608060405234801561001057600080fd5b506004361061004c5760003560e01c806357b72a3f14610051578063baace33e14610081578063c3f8a1941461009f578063c9c0b5de146100bd575b600080fd5b61006b6004803603810190610066919061095e565b6100d9565b6040516100789190610cb1565b60405180910390f35b6100896100f1565b6040516100969190610bcd565b60405180910390f35b6100a7610242565b6040516100b49190610cb1565b60405180910390f35b6100d760048036038101906100d29190610987565b61028d565b005b60036020528060005260406000206000915090505481565b60606002805480602002602001604051908101604052809291908181526020016000905b8282101561023957838290600052602060002090600302016040518060600160405290816000820160009054906101000a900473ffffffffffffffffffffffffffffffffffffffff1673ffffffffffffffffffffffffffffffffffffffff1673ffffffffffffffffffffffffffffffffffffffff16815260200160018201805461019e90610e97565b80601f01602080910402602001604051908101604052809291908181526020018280546101ca90610e97565b80156102175780601f106101ec57610100808354040283529160200191610217565b820191906000526020600020905b8154815290600101906020018083116101fa57829003601f168201915b5050505050815260200160028201548152505081526020019060010190610115565b50505050905090565b60006102856040518060400160405280601b81526020017f5765206861766520256420746f74616c207265736f75726365732100000000008152506000546106dd565b600054905090565b42603c600360003373ffffffffffffffffffffffffffffffffffffffff1673ffffffffffffffffffffffffffffffffffffffff168152602001908152602001600020546102da9190610dc3565b1061031a576040517f08c379a000000000000000000000000000000000000000000000000000000000815260040161031190610c91565b60405180910390fd5b42600360003373ffffffffffffffffffffffffffffffffffffffff1673ffffffffffffffffffffffffffffffffffffffff1681526020019081526020016000208190555060016000808282546103709190610dc3565b925050819055506103b66040518060400160405280601881526020017f2573206861732061646465642061207265736f7572636521000000000000000081525033610779565b600260405180606001604052803373ffffffffffffffffffffffffffffffffffffffff16815260200183815260200142815250908060018154018082558091505060019003906000526020600020906003020160009091909190915060008201518160000160006101000a81548173ffffffffffffffffffffffffffffffffffffffff021916908373ffffffffffffffffffffffffffffffffffffffff160217905550602082015181600101908051906020019061047592919061083e565b50604082015181600201555050606460015442446104939190610dc3565b61049d9190610dc3565b6104a79190610efa565b6001819055506104ee6040518060400160405280601681526020017f52616e646f6d20232067656e6572617465643a202564000000000000000000008152506001546106dd565b6032600154116105f1576105376040518060400160405280600781526020017f257320776f6e210000000000000000000000000000000000000000000000000081525033610779565b6000655af3107a4000905060003373ffffffffffffffffffffffffffffffffffffffff168260405161056890610bb8565b60006040518083038185875af1925050503d80600081146105a5576040519150601f19603f3d011682016040523d82523d6000602084013e6105aa565b606091505b50509050806105ee576040517f08c379a00000000000000000000000000000000000000000000000000000000081526004016105e590610c71565b60405180910390fd5b50505b3373ffffffffffffffffffffffffffffffffffffffff167f1c15109b4e0bd62abadb33bfd785056bdb93a0530b0330f648a9a2ce3eeba5e24283604051610639929190610ccc565b60405180910390a250565b6106da816040516024016106589190610bef565b6040516020818303038152906040527f41304fac000000000000000000000000000000000000000000000000000000007bffffffffffffffffffffffffffffffffffffffffffffffffffffffff19166020820180517bffffffffffffffffffffffffffffffffffffffffffffffffffffffff8381831617835250505050610815565b50565b61077582826040516024016106f3929190610c41565b6040516020818303038152906040527f9710a9d0000000000000000000000000000000000000000000000000000000007bffffffffffffffffffffffffffffffffffffffffffffffffffffffff19166020820180517bffffffffffffffffffffffffffffffffffffffffffffffffffffffff8381831617835250505050610815565b5050565b610811828260405160240161078f929190610c11565b6040516020818303038152906040527f319af333000000000000000000000000000000000000000000000000000000007bffffffffffffffffffffffffffffffffffffffffffffffffffffffff19166020820180517bffffffffffffffffffffffffffffffffffffffffffffffffffffffff8381831617835250505050610815565b5050565b60008151905060006a636f6e736f6c652e6c6f679050602083016000808483855afa5050505050565b82805461084a90610e97565b90600052602060002090601f01602090048101928261086c57600085556108b3565b82601f1061088557805160ff19168380011785556108b3565b828001600101855582156108b3579182015b828111156108b2578251825591602001919060010190610897565b5b5090506108c091906108c4565b5090565b5b808211156108dd5760008160009055506001016108c5565b5090565b60006108f46108ef84610d21565b610cfc565b90508281526020810184848401111561090c57600080fd5b610917848285610e55565b509392505050565b60008135905061092e81611073565b92915050565b600082601f83011261094557600080fd5b81356109558482602086016108e1565b91505092915050565b60006020828403121561097057600080fd5b600061097e8482850161091f565b91505092915050565b60006020828403121561099957600080fd5b600082013567ffffffffffffffff8111156109b357600080fd5b6109bf84828501610934565b91505092915050565b60006109d48383610b4a565b905092915050565b6109e581610e19565b82525050565b6109f481610e19565b82525050565b6000610a0582610d62565b610a0f8185610d85565b935083602082028501610a2185610d52565b8060005b85811015610a5d5784840389528151610a3e85826109c8565b9450610a4983610d78565b925060208a01995050600181019050610a25565b50829750879550505050505092915050565b6000610a7a82610d6d565b610a848185610da1565b9350610a94818560208601610e64565b610a9d81610fe7565b840191505092915050565b6000610ab382610d6d565b610abd8185610db2565b9350610acd818560208601610e64565b610ad681610fe7565b840191505092915050565b6000610aee602683610db2565b9150610af982610ff8565b604082019050919050565b6000610b11600083610d96565b9150610b1c82611047565b600082019050919050565b6000610b34600883610db2565b9150610b3f8261104a565b602082019050919050565b6000606083016000830151610b6260008601826109dc565b5060208301518482036020860152610b7a8282610a6f565b9150506040830151610b8f6040860182610b9a565b508091505092915050565b610ba381610e4b565b82525050565b610bb281610e4b565b82525050565b6000610bc382610b04565b9150819050919050565b60006020820190508181036000830152610be781846109fa565b905092915050565b60006020820190508181036000830152610c098184610aa8565b905092915050565b60006040820190508181036000830152610c2b8185610aa8565b9050610c3a60208301846109eb565b9392505050565b60006040820190508181036000830152610c5b8185610aa8565b9050610c6a6020830184610ba9565b9392505050565b60006020820190508181036000830152610c8a81610ae1565b9050919050565b60006020820190508181036000830152610caa81610b27565b9050919050565b6000602082019050610cc66000830184610ba9565b92915050565b6000604082019050610ce16000830185610ba9565b8181036020830152610cf38184610aa8565b90509392505050565b6000610d06610d17565b9050610d128282610ec9565b919050565b6000604051905090565b600067ffffffffffffffff821115610d3c57610d3b610fb8565b5b610d4582610fe7565b9050602081019050919050565b6000819050602082019050919050565b600081519050919050565b600081519050919050565b6000602082019050919050565b600082825260208201905092915050565b600081905092915050565b600082825260208201905092915050565b600082825260208201905092915050565b6000610dce82610e4b565b9150610dd983610e4b565b9250827fffffffffffffffffffffffffffffffffffffffffffffffffffffffffffffffff03821115610e0e57610e0d610f2b565b5b828201905092915050565b6000610e2482610e2b565b9050919050565b600073ffffffffffffffffffffffffffffffffffffffff82169050919050565b6000819050919050565b82818337600083830152505050565b60005b83811015610e82578082015181840152602081019050610e67565b83811115610e91576000848401525b50505050565b60006002820490506001821680610eaf57607f821691505b60208210811415610ec357610ec2610f89565b5b50919050565b610ed282610fe7565b810181811067ffffffffffffffff82111715610ef157610ef0610fb8565b5b80604052505050565b6000610f0582610e4b565b9150610f1083610e4b565b925082610f2057610f1f610f5a565b5b828206905092915050565b7f4e487b7100000000000000000000000000000000000000000000000000000000600052601160045260246000fd5b7f4e487b7100000000000000000000000000000000000000000000000000000000600052601260045260246000fd5b7f4e487b7100000000000000000000000000000000000000000000000000000000600052602260045260246000fd5b7f4e487b7100000000000000000000000000000000000000000000000000000000600052604160045260246000fd5b6000601f19601f8301169050919050565b7f4661696c656420746f207769746864726177206d6f6e65792066726f6d20636f60008201527f6e74726163740000000000000000000000000000000000000000000000000000602082015250565b50565b7f576169742031356d000000000000000000000000000000000000000000000000600082015250565b61107c81610e19565b811461108757600080fd5b5056fea26469706673582212203cc1c53ad4b5fd4693b795fb525f9b87f9ffc331c7f925c35287045a7fb3afb264736f6c63430008040033",
  "linkReferences": {},
  "deployedLinkReferences": {}
}